A0085002181711019A0                                                                                                                                                                                                                                                 
A018500218201711METLIFE SOLUTIONS SUCCURSALE                                                    15 RUE SANAA QUARTIER HASSAN                                                                          RABAT               10000 612017112620171210
A028500218201711100062403M NEBHI                       SAADIA                        00000000000000000000                                                                                                                                                           
A028500218201711100712978SERGHINI                      SANAA                         00000000000000000000                                                                                                                                                           
A028500218201711101154343EL HAFIDI                     BOUCHRA                       00000000000000000000                                                                                                                                                           
A028500218201711102929908ENNASSIRY                     KAOUTAR                       00000000000000000000                                                                                                                                                           
A028500218201711104002573LOTFI                         MEHDI                         00000000000000000000                                                                                                                                                           
A028500218201711107968087EL HERRIF                     MOHAMMED                      00000000000000000000                                                                                                                                                           
A028500218201711107987384EL MAMOUNI                    KARIMA                        00000000000000000000                                                                                                                                                           
A028500218201711108049282ESSALMI                       ZINEB                         00000000000000000000                                                                                                                                                           
A028500218201711112870376ZAKI ZAKI                     ASMA                          00000000000000000000                                                                                                                                                           
A028500218201711116205991DIAKHATE                      IBRAHIMA                      00000000000000000000                                                                                                                                                           
A028500218201711116828678RHALMI                        NABIL                         00000000000000000000                                                                                                                                                           
A028500218201711117361263TAHRI                         SANAE                         00000000000000000000                                                                                                                                                           
A028500218201711118024009DLIMI                         HANAE                         00000000000000000000                                                                                                                                                           
A028500218201711119687279SEKKAT                        OUAFAE                        00000000000000000000                                                                                                                                                           
A028500218201711119690678EL GHAMRI                     MERYEM                        00000000000000000000                                                                                                                                                           
A028500218201711120634392EL KARKOUBI                   IBTISSAM                      00000000000000000000                                                                                                                                                           
A028500218201711121549602CHOUHBI                       MERIEM                        00000000000000000000                                                                                                                                                           
A028500218201711124979166MAHMOUDI                      RIDA                          00000000000000000000                                                                                                                                                           
A028500218201711125921950KATANE                        ADNANE                        00000000000000000000                                                                                                                                                           
A028500218201711126317497EL MAHRI                      IMANE                         00000000000000000000                                                                                                                                                           
A028500218201711127957482KAHACK                        CAMELIA                       00000000000000000000                                                                                                                                                           
A028500218201711129765693EL BAHLOUL                    MAROUA                        00000000000000000000                                                                                                                                                           
A028500218201711132735509EL ALAMI                      AHMED SOUHAIL                 00000000000000000000                                                                                                                                                           
A028500218201711132766302MISBAH                        IMANE                         00000000000000000000                                                                                                                                                           
A028500218201711133385586ABERCHANE                     SARA                          00000000000000000000                                                                                                                                                           
A028500218201711141307503TROUDI                        ZAKARIA                       00000000000000000000                                                                                                                                                           
A028500218201711141928790SAADI                         IMAD                          00000000000000000000                                                                                                                                                           
A028500218201711142774077SITAYEB                       ZINEB                         00000000000000000000                                                                                                                                                           
A028500218201711143670555ABOUHAFS                      KALTOUM                       00000000000000000000                                                                                                                                                           
A028500218201711143838666NABIL                         MOUHANE                       00000000000000000000                                                                                                                                                           
A028500218201711143852963NAJI                          WAFAE                         00000000000000000000                                                                                                                                                           
A028500218201711143912965EL FAIZ                       NAJAT                         00000000000000000000                                                                                                                                                           
A028500218201711144274596RAHALI                        ZINEB                         00000000000000000000                                                                                                                                                           
A028500218201711144979701EL AKRABA                     SARA                          00000000000000000000                                                                                                                                                           
A028500218201711146345999TEHRI                         JINANE                        00000000000000000000                                                                                                                                                           
A028500218201711148238762AMZAZI                        BOUCHRA                       00000000000000000000                                                                                                                                                           
A028500218201711148689577BOUHALI                       MOHCINE                       00000000000000000000                                                                                                                                                           
A028500218201711150529274NASSERI                       AHLAM                         00000000000000000000                                                                                                                                                           
A028500218201711154788587MEDDAH                        MARYA                         00000000000000000000                                                                                                                                                           
A028500218201711154905389ELYOUSSFI                     MARYAM                        00000000000000000000                                                                                                                                                           
A028500218201711158689757BARBARA                       IBTISSAM                      00000000000000000000                                                                                                                                                           
A028500218201711159383994BOHDOU                        HASNA                         00000000000000000000                                                                                                                                                           
A028500218201711161244580FADIL                         YAHIA                         00000000000000000000                                                                                                                                                           
A028500218201711168609993HAGGUI                        SOUKAINA                      00000000000000000000                                                                                                                                                           
A028500218201711172291497OUALI                         NAOUAL                        00000000000000000000                                                                                                                                                           
A028500218201711172800983EL BAHI                       HIND                          00000000000000000000                                                                                                                                                           
A028500218201711173006283LABRAIKI                      FATIMA ZAHRA                  00000000000000000000                                                                                                                                                           
A028500218201711173035480BANNOUR                       KAOUTAR                       00000000000000000000                                                                                                                                                           
A028500218201711173045083ATTAOUI                       IMANE                         00000000000000000000                                                                                                                                                           
A028500218201711173045182GHAFOULI                      RAJAA                         00000000000000000000                                                                                                                                                           
A028500218201711175021867ALAMI                         MOHAMED FAHD                  00000000000000000000                                                                                                                                                           
A028500218201711175802960BEN ZAIRA                     MERYEM                        00000000000000000000                                                                                                                                                           
A028500218201711175934763FIGUIGUI                      MEHDI                         00000000000000000000                                                                                                                                                           
A028500218201711177703950MRINI                         SANAA                         00000000000000000000                                                                                                                                                           
A028500218201711184618861CHIKI                         KHADIJA                       00000000000000000000                                                                                                                                                           
A028500218201711184805195MINKARI                       AMINE                         00000000000000000000                                                                                                                                                           
A028500218201711185224568ZEDDE                         MICHEL ANTONIO                00000000000000000000                                                                                                                                                           
A028500218201711185231480KNIKSSI                       SOUMIA                        00000000000000000000                                                                                                                                                           
A028500218201711189644564SERHIR EL FASSI               MOHAMMED REDA                 00000000000000000000                                                                                                                                                           
A028500218201711191925689BEJDOURI                      ZOUBAIDA                      00000000000000000000                                                                                                                                                           
A028500218201711192350984NOUINI                        ZINEB                         00000000000000000000                                                                                                                                                           
A028500218201711193076670DOUNAN                        AOUATIF                       00000000000000000000                                                                                                                                                           
A028500218201711197414769ABIDA                         SARA                          00000000000000000000                                                                                                                                                           
A028500218201711199339080SAADI                         KHADIJA                       00000000000000000000                                                                                                                                                           
A028500218201711199908132AOMARI                        AHMED                         00000000000000000000                                                                                                                                                           
A038500218201711000065000000000000000000000000000000000000000000000009616742179                                                                                                                                                                                     
