2123546000000000000000akhazzan                 mbarek                   000000M0000000001011964D20000555400                  010006240300000000000000                                   12023
2123546000000007100000tahir                    adelhadi                 000000M0000000025021980M30000682191                  010071297800000000000000                                   12023
2123546000000007100000tahir                    adelhadi                 000000M0000000025021980M30000682191                  010071297800000000000000                                   12023
2123546000000000000000EL ASSRI                 Anass                    000000M0000000013042023V00000555400        T1235472  019304431700000000000000choaib.tahir@i-gouvernancia.com    12023
21235460000000000000000                        0                        000000F0000000003032023D5000061230024032023          017285833800212667795587test@email.com                     12023
2123546000000015200000el karakhi               mimoun                   000000M0000000002041996C00000193884                  017467119200000000000000                                   12023
7123546000000000000000ghodrani                 mohamed                  000000M0000000021061995C00001144826                  019304431700212612364569                                   12023
2123546000000000000000jaadouni                 salma                    000000F0000000020081996C00000824400        BJ471646  015692011800000000000000                                   12023
2123546000000000000000jaadouni                 salma                    000000F0000000020081996C00000824400        BJ471646  015692011800000000000000                                   12023
