2001687010000007100000amokrane                 karima                   000006FM0000000020021995C00000500030        BB135657  019699390500000000000000                                   22023
2001687010000007100000el karakhi               mimoun                   000019MM0000000002041996C00000593530        DA89311   017467119200000000000000                                   22023
2001687010119367490000jaadouni                 salma                    000023FM0000000020081996C00001320030        T261959   015692011800000000000000                                   22023
2001687010000007100000er raja                  brahim                   000026MM0000000016021998C00000311855        MD13197   019192371300000000000000                                   22023
2001687010000007100000lamdaini                 wafa                     000027FM0000000017101999C00000376855        JB505134  012878562300000000000000                                   22023
2001687010000007100000hamzi                    manal                    000033FM0000000030111999C00000408440        BB183211  014721492000000000000000                                   22023
2001687010000007100000boudrar                  ikram                    000037FM0000000010121999C00000457055        T289460   017805651500000000000000                                   22023
2001687010000007100000khaiz                    chaimae                  000038FM0000000005081999C00000345500        BB173026  015614192600000000000000                                   22023
2001687010000007100000boubout                  hamza                    000039MM0000000005112002C00000311855        BB202786  016425171500000000000000                                   22023
2001687010000007100000azad                     hanane                   000044FM0000000029061991C00000420250        BB107295  019261898600000000000000                                   22023
2001687010000007100000ben ali                  el mehdi                 000047MM0000000019111994C00000326706        BB124456  015738819400000000000000                                   22023
2001687010000007100000chakir                   achraf                   000054MM0000000012051997C00000297005        BB148677  017541332000000000000000                                   22023
2001687010000007100000achbar                   abdelaziz                000058MM0000000012091999C00000326706        HH119028  019091762000000000000000                                   22023
2001687010000007100000bouaatarass              salma                    000062FM0000000009081999C00000400000        BK680116  013496104300000000000000                                   22023
2001687010000007100000oubassan                 abessamad                000066MM0000000022101990M10001395100        J449611   015315429200000000000000                                   22023
2001687010000007100000el alaoui                rachid                   000081MM0000000025071995C00000297005        PB301713  015684214800000000000000                                   22023
2001687010000007100000el hantati               mohammed                 000087MM0000000010011998C00000297005        JK34547   013222403700000000000000                                   22023
2001687010000007100000abdellaoui               abdelmalik               000096MM0000000004011995C00000389505        UC148598  016950864000000000000000                                   22023
