7123546010000015200600el karakhi               mimoun                   000019MM0000000002041996C00000199284        DA89311   017467119200000000000000                                   12023
2123546010000007120300jaadouni                 salma                    000023FM0000000020081996C00000824400        T261959   015692011800000000000000                                   12023
2123546010000007100600boutarkha                omaima                   000024FM0000000007122000M00001224600        BJ471646  012366762800000000000000                                   12023
