21235460000000000000000                        0                        000000FM0000000003032023D5000061230024032023          017285833800212667795587test@email.com                     12023
7123546000000015200000el karakhi               mimoun                   000019MM0000000002041996C20000193884        DA89311   017467119200000000000000                                   12023
7123546000000000000000ghodrani                 mohamed                  000021MM0000000021061995C00001144826        HH166137  019304431721261236456912                                   12023
2123546000000000000000jaadouni                 salma                    000023FM0000000020081996C00000824400        T261959   015692011800000000000000                                   12023
2123546000000000000000boutarkha                omaima                   000024FM0000000007122000M00000612300        BJ471646  012366762800000000000000                                   12023
